:100000000C942A000C9447000C9447000C94470071
:100010000C9447000C9447000C9447000C94470044
:100020000C9447000C9447000C94151B0C9447004B
:100030000C9447000C9447000C9447000C94470024
:100040000C9447000C9447000C9447000C94470014
:100050000C94470011241FBECFE5D8E0DEBFCDBF12
:1000600011E0A0E6B0E0E6EEF2E402C005900D92E9
:10007000AC35B107D9F711E0ACE5B1E001C01D9294
:10008000AA36B107E1F70E94D81B0C9471210C9499
:100090000000EF92FF920F931F937B018C0120E0F1
:1000A00030E040E05FE40E94490388238CF0C801FF
:1000B000B70120E030E040E05FE40E94C1010E940F
:1000C000A9039B01AC01205030404040504806C07D
:1000D000C801B7010E94A9039B01AC01B901CA0183
:1000E0001F910F91FF90EF900895A0E0B0E0EBE733
:1000F000F0E00C943A21DC012B01FA019C91923042
:1001000008F439C1EB018881823008F433C194309E
:1001100069F4843009F02FC111969C91119789815F
:10012000981709F428C1AEE4B1E025C1843009F480
:1001300021C18230A9F4923009F01DC19A01AD01AC
:1001400088E0EA010990AE01E90109929E0181501F
:10015000C1F7E201898111969C918923818308C1AD
:10016000923009F407C112962D903C901397EB0141
:100170008A819B811496AD90BD90CD90DC901797AD
:10018000EC80FD800E811F819101281B390BB90184
:1001900037FF04C066277727621B730B6032710537
:1001A0000CF061C0121613066CF537014801062EDB
:1001B00004C096948794779467940A94D2F721E0C8
:1001C00030E040E050E004C0220F331F441F551FB1
:1001D0006A95D2F721503040404050402E213F21B7
:1001E00040235123211531054105510521F021E01E
:1001F00030E040E050E079018A01E628F72808293C
:1002000019293CC0232BD1F1260E371E350146019A
:10021000062E04C096948794779467940A94D2F734
:1002200021E030E040E050E004C0220F331F441FC3
:10023000551F6A95D2F721503040404050402A2146
:100240003B214C215D21211531054105510521F04E
:1002500021E030E040E050E059016A01A628B728CB
:10026000C828D9280BC0821593052CF01C01AA249C
:10027000BB24650103C0EE24FF24870111969C91E5
:10028000D20111968C91981709F445C0992339F041
:10029000A80197012A193B094C095D0906C0A6016E
:1002A00095012E193F09400B510B57FD08C01182D3
:1002B0003382228224833583468357831DC081E0A5
:1002C00081833382228288279927DC01821B930B4A
:1002D000A40BB50B84839583A683B7830DC0220F2F
:1002E000331F441F551F24833583468357838281E0
:1002F000938101979383828324813581468157813D
:10030000DA01C9010197A109B1098F5F9F4FAF4F72
:10031000BF4328F30BC0918333822282EA0CFB1C7B
:100320000C1D1D1DE482F5820683178383E0808304
:10033000248135814681578157FF1AC0C901AA27F8
:1003400097FDA095BA2F81709070A070B0705695EF
:10035000479537952795822B932BA42BB52B848318
:100360009583A683B7838281938101969383828349
:10037000DF0101C0D201CD01CDB7DEB7E2E10C94BF
:100380005621A0E2B0E0E7ECF1E00C94462169834D
:100390007A838B839C832D833E834F835887E9E048
:1003A000EE2EF12CEC0EFD1ECE010196B7010E943F
:1003B000D2048E010F5E1F4FCE010596B8010E9438
:1003C000D2048A8991E089278A8BC701B801AE01DE
:1003D000475E5F4F0E9475000E94FD03A096E6E015
:1003E0000C946221A0E2B0E0E8EFF1E00C94462129
:1003F00069837A838B839C832D833E834F835887C5
:10040000F9E0EF2EF12CEC0EFD1ECE010196B701A6
:100410000E94D2048E010F5E1F4FCE010596B801D7
:100420000E94D204C701B801AE01475E5F4F0E942F
:1004300075000E94FD03A096E6E00C946221A0E204
:10044000B0E0E5E2F2E00C943A2169837A838B8391
:100450009C832D833E834F835887CE010196BE0136
:10046000675F7F4F0E94D204CE010596BE016F5E8A
:100470007F4F0E94D2049985923088F0898982301A
:10048000C8F0943019F4823051F404C0843029F457
:10049000923081F48EE491E0C6C0923049F420E0BD
:1004A0009A858A89981321E02A87CE010996BBC0D4
:1004B000823049F420E09A858A89981321E02A8BBA
:1004C000CE014196B0C02D843E844F8458886D88FB
:1004D0007E888F88988CEE24FF248701AA24BB2471
:1004E000650140E050E060E070E0E0E0F0E0C10174
:1004F00081709070892BE9F0E60CF71C081D191D1E
:100500009A01AB012A0D3B1D4C1D5D1D80E090E062
:10051000A0E0B0E0E614F7040805190520F481E036
:1005200090E0A0E0B0E0BA01A901480F591F6A1F8E
:100530007B1FAA0CBB1CCC1CDD1C97FE08C081E0F5
:1005400090E0A0E0B0E0A82AB92ACA2ADB2A3196B6
:10055000E032F10549F0660C771C881C991C569412
:10056000479437942794C3CFFA85EA892B893C892D
:100570008B859C85280F391F2E5F3F4F17C0CA01FE
:1005800081709070892B61F016950795F794E79428
:1005900080E090E0A0E0B0E8E82AF92A0A2B1B2BC3
:1005A00076956795579547952F5F3F4F77FDE7CF36
:1005B0000CC0440F551F661F771F17FD4160EE0CDE
:1005C000FF1C001F111F21503040403090E05907A0
:1005D00090E0690790E4790760F32B8F3C8FDB0193
:1005E000CA018F779070A070B07080349105A1051A
:1005F000B10561F447FD0AC0E114F10401051105DC
:1006000029F0405C5F4F6F4F7F4F40781A8EFE1786
:1006100011F081E08A8F4D8F5E8F6F8F78A383E01A
:10062000898FCE0149960E94FD03A096E2E10C94C9
:100630005621A8E1B0E0EFE1F3E00C944621698394
:100640007A838B839C832D833E834F83588789E0F5
:10065000E82EF12CEC0EFD1ECE010196B7010E9492
:10066000D2048E010F5E1F4FCE010596B8010E9485
:10067000D2048985823040F08989823028F0C70110
:10068000B8010E944A0501C08FEF6896E6E00C941D
:100690006221A8E1B0E0EFE4F3E00C944621698325
:1006A0007A838B839C832D833E834F83588789E095
:1006B000E82EF12CEC0EFD1ECE010196B7010E9432
:1006C000D2048E010F5E1F4FCE010596B8010E9425
:1006D000D2048985823040F08989823028F0C701B0
:1006E000B8010E944A0501C08FEF6896E6E00C94BD
:1006F0006221A8E1B0E0EFE7F3E00C9446216983C2
:100700007A838B839C832D833E834F83588789E034
:10071000E82EF12CEC0EFD1ECE010196B7010E94D1
:10072000D2048E010F5E1F4FCE010596B8010E94C4
:10073000D2048985823040F08989823028F0C7014F
:10074000B8010E944A0501C081E06896E6E00C9479
:100750006221ACE0B0E0EFEAF3E00C944A21698357
:100760007A838B839C83CE010196BE016B5F7F4FA2
:100770000E94D2048D81823061F1823050F1843048
:1007800021F48E81882351F12EC02F81388537FDC9
:1007900020C06E812F3131051CF06623F9F023C093
:1007A0008EE190E0821B930B29853A854B855C8511
:1007B00004C056954795379527958A95D2F76623B5
:1007C000B1F050954095309521953F4F4F4F5F4F79
:1007D0000EC020E030E040E050E009C02FEF3FEFD6
:1007E0004FEF5FE704C020E030E040E050E8B9019F
:1007F000CA012C96E2E00C946621DF92EF92FF9200
:100800000F931F93FC01E480F58006811781D1804E
:100810008081823048F480E090E0A0E1B0E0E82AF6
:10082000F92A0A2B1B2BA5C0843009F49FC0823003
:1008300021F4EE24FF24870105C0E114F104010531
:10084000110519F4E0E0F0E096C0628173819FEF3A
:10085000623879070CF05BC022E83FEF261B370BAC
:100860002A3131052CF020E030E040E050E02AC091
:10087000B801A701022E04C0769567955795479554
:100880000A94D2F781E090E0A0E0B0E004C0880FC5
:10089000991FAA1FBB1F2A95D2F70197A109B10979
:1008A0008E219F21A023B1230097A105B10521F03E
:1008B00081E090E0A0E0B0E09A01AB01282B392B59
:1008C0004A2B5B2BDA01C9018F779070A070B07052
:1008D00080349105A105B10539F427FF09C0205CDA
:1008E0003F4F4F4F5F4F04C0215C3F4F4F4F5F4F13
:1008F000E0E0F0E02030A0E03A07A0E04A07A0E402
:100900005A0710F0E1E0F0E079018A0127C0603871
:10091000710564F5FB01E158FF4FD801C7018F77DE
:100920009070A070B07080349105A105B10539F4C4
:10093000E7FE0DC080E490E0A0E0B0E004C08FE3EB
:1009400090E0A0E0B0E0E80EF91E0A1F1B1F17FFA1
:1009500005C016950795F794E794319687E01695AC
:100960000795F794E7948A95D1F705C0EE24FF2404
:100970008701EFEFF0E06E2F679566276795902F60
:100980009F77D794DD24D7948E2F8695492F462BB9
:10099000582F5D29B701CA011F910F91FF90EF9069
:1009A000DF900895FC01DB01408151812281622F9B
:1009B0006F7770E0221F2227221F9381892F880FD3
:1009C000822B282F30E0991F9927991F11969C930D
:1009D000119721153105A9F54115510561057105DD
:1009E00011F482E037C082E89FEF13969C938E93B8
:1009F00012979A01AB0167E0220F331F441F551F66
:100A00006A95D1F783E08C930DC0220F331F441FEA
:100A1000551F12968D919C911397019713969C9355
:100A20008E931297203080E0380780E0480780E4FA
:100A3000580758F314962D933D934D935C93179755
:100A400008952F3F310579F4411551056105710570
:100A500019F484E08C93089564FF03C081E08C93C3
:100A600012C01C9210C02F57304013963C932E9307
:100A7000129783E08C9387E0440F551F661F771F02
:100A80008A95D1F7706414964D935D936D937C9322
:100A9000179708951F93DC01FB019C91923008F495
:100AA00047C08081823008F443C0943051F41196DD
:100AB0001C91843099F58181682F70E0611B710968
:100AC0003FC0843021F0923031F48230B9F181811D
:100AD000882389F12DC011961C9111978230F1F075
:100AE00081811817D9F412962D913C911397828128
:100AF00093818217930794F028173907BCF0149656
:100B00008D919D910D90BC91A02D248135814681C0
:100B10005781281739074A075B0718F4112341F05A
:100B20000AC082179307A407B50740F4112319F0F0
:100B300061E070E005C06FEF7FEF02C060E070E041
:100B4000CB011F910895DF93CF93CDB7DEB782E03D
:100B500060E041E00E94E70582E062E041E00E943F
:100B6000E705CF91DF910895DF93CF93CDB7DEB73F
:100B700082E060E040E00E94EF0682E062E041E057
:100B80000E94EF06CF91DF910895DF93CF93CDB709
:100B9000DEB782E062E040E00E94EF0682E060E0C3
:100BA00041E00E94EF06CF91DF910895DF93CF934C
:100BB000CDB7DEB782E060E041E00E94EF0682E060
:100BC00062E041E00E94EF06CF91DF910895DF934C
:100BD000CF93CDB7DEB727970FB6F894DEBF0FBE21
:100BE000CDBF89836A834B838981843008F0EEC04E
:100BF0008A81883008F0EAC08B81813009F06FC0AB
:100C00008981282F30E03F832E838E819F81813020
:100C1000910549F12E813F81223031052CF48E81DE
:100C20009F81009761F0D2C02E813F812230310533
:100C300071F18E819F8183309105E9F1C7C0AAE3EC
:100C4000B0E0EAE3F0E08081482F8A81282F30E08D
:100C500081E090E0022E02C0880F991F0A94E2F70B
:100C6000842B8C93B3C0A7E3B0E0E7E3F0E080818E
:100C7000482F8A81282F30E081E090E0022E02C0C8
:100C8000880F991F0A94E2F7842B8C939FC0A4E3EA
:100C9000B0E0E4E3F0E08081482F8A81282F30E043
:100CA00081E090E0022E02C0880F991F0A94E2F7BB
:100CB000842B8C938BC0A1E3B0E0E1E3F0E0808172
:100CC000482F8A81282F30E081E090E0022E02C078
:100CD000880F991F0A94E2F7842B8C9377C08B813D
:100CE000882309F073C08981282F30E03D832C834D
:100CF0008C819D818130910559F12C813D8122307B
:100D000031052CF48C819D81009769F05FC02C81A6
:100D10003D812230310589F18C819D81833091059F
:100D200009F440C053C0AAE3B0E0EAE3F0E08081F8
:100D3000482F8A81282F30E081E090E0022E02C007
:100D4000880F991F0A94E2F7809584238C933EC004
:100D5000A7E3B0E0E7E3F0E08081482F8A81282F05
:100D600030E081E090E0022E02C0880F991F0A94C3
:100D7000E2F7809584238C9329C0A4E3B0E0E4E3F8
:100D8000F0E08081482F8A81282F30E081E090E0D8
:100D9000022E02C0880F991F0A94E2F780958423DF
:100DA0008C9314C0A1E3B0E0E1E3F0E08081482F30
:100DB0008A81282F30E081E090E0022E02C0880F67
:100DC000991F0A94E2F7809584238C9327960FB697
:100DD000F894DEBF0FBECDBFCF91DF910895DF93B2
:100DE000CF93CDB7DEB727970FB6F894DEBF0FBE0F
:100DF000CDBF89836A834B838981843008F0EEC03C
:100E00008A81883008F0EAC08B81813009F06FC098
:100E10008981282F30E03F832E838E819F8181300E
:100E2000910549F12E813F81223031052CF48E81CC
:100E30009F81009761F0D2C02E813F812230310521
:100E400071F18E819F8183309105E9F1C7C0ABE3D9
:100E5000B0E0EBE3F0E08081482F8A81282F30E07A
:100E600081E090E0022E02C0880F991F0A94E2F7F9
:100E7000842B8C93B3C0A8E3B0E0E8E3F0E080817A
:100E8000482F8A81282F30E081E090E0022E02C0B6
:100E9000880F991F0A94E2F7842B8C939FC0A5E3D7
:100EA000B0E0E5E3F0E08081482F8A81282F30E030
:100EB00081E090E0022E02C0880F991F0A94E2F7A9
:100EC000842B8C938BC0A2E3B0E0E2E3F0E080815E
:100ED000482F8A81282F30E081E090E0022E02C066
:100EE000880F991F0A94E2F7842B8C9377C08B812B
:100EF000882309F073C08981282F30E03D832C833B
:100F00008C819D818130910559F12C813D81223068
:100F100031052CF48C819D81009769F05FC02C8194
:100F20003D812230310589F18C819D81833091058D
:100F300009F440C053C0ABE3B0E0EBE3F0E08081E4
:100F4000482F8A81282F30E081E090E0022E02C0F5
:100F5000880F991F0A94E2F7809584238C933EC0F2
:100F6000A8E3B0E0E8E3F0E08081482F8A81282FF1
:100F700030E081E090E0022E02C0880F991F0A94B1
:100F8000E2F7809584238C9329C0A5E3B0E0E5E3E4
:100F9000F0E08081482F8A81282F30E081E090E0C6
:100FA000022E02C0880F991F0A94E2F780958423CD
:100FB0008C9314C0A2E3B0E0E2E3F0E08081482F1C
:100FC0008A81282F30E081E090E0022E02C0880F55
:100FD000991F0A94E2F7809584238C9327960FB685
:100FE000F894DEBF0FBECDBFCF91DF910895DF93A0
:100FF000CF9300D000D00F92CDB7DEB78A836B833A
:101000008A81843008F06CC08B81883008F068C019
:101010008A81282F30E03D832C834C815D814130D3
:10102000510541F18C819D818230910534F42C81F0
:101030003D812115310561F055C04C815D81423003
:10104000510551F18C819D8183309105B9F14AC0E0
:10105000E9E3F0E08081282F30E08B81882F90E059
:10106000A90102C0559547958A95E2F7CA0181709A
:10107000898338C0E6E3F0E08081282F30E08B815F
:10108000882F90E0A90102C0559547958A95E2F70F
:10109000CA018170898326C0E3E3F0E08081282FB4
:1010A00030E08B81882F90E0A90102C055954795CB
:1010B0008A95E2F7CA018170898314C0E0E3F0E009
:1010C0008081282F30E08B81882F90E0A90102C019
:1010D000559547958A95E2F7CA018170898302C0C8
:1010E0008FEF898389810F900F900F900F900F9051
:1010F000CF91DF910895DF93CF9300D000D00F926E
:10110000CDB7DEB78A836B838A81843008F082C0D2
:101110008B81883008F07EC08A81282F30E03D83A3
:101120002C834C815D814130510579F18C819D8109
:101130008230910534F42C813D812115310569F00F
:101140006AC04C815D8142305105B1F18C819D8135
:101150008330910509F447C05EC0EBE3F0E0808185
:10116000282F30E08B81882F90E0A90102C055958F
:1011700047958A95E2F7CA018170907019820097AD
:1011800009F049C081E0898346C0E8E3F0E080814E
:10119000282F30E08B81882F90E0A90102C055955F
:1011A00047958A95E2F7CA0181709070198200977D
:1011B00091F581E089832FC0E5E3F0E08081282F5D
:1011C00030E08B81882F90E0A90102C055954795AA
:1011D0008A95E2F7CA018170907019820097D9F45C
:1011E00081E0898318C0E2E3F0E08081282F30E0BD
:1011F0008B81882F90E0A90102C0559547958A956B
:10120000E2F7CA01817090701982009721F481E0A1
:10121000898301C0198289810F900F900F900F90E0
:101220000F90CF91DF910895DF93CF9300D000D03E
:10123000CDB7DEB789836A838981282F30E03C836C
:101240002B838B819C8181309105D1F02B813C8156
:10125000223031052CF48B819C81009761F01EC0F7
:101260002B813C812230310581F08B819C81833040
:10127000910581F013C0EAE3F0E08A8180830EC01B
:10128000E7E3F0E08A81808309C0E4E3F0E08A814B
:10129000808304C0E1E3F0E08A8180830F900F90A7
:1012A0000F900F90CF91DF910895DF93CF9300D0EF
:1012B00000D0CDB7DEB789836A838981282F30E0DB
:1012C0003C832B838B819C8181309105D1F02B81D4
:1012D0003C81223031052CF48B819C81009761F098
:1012E0001EC02B813C812230310581F08B819C8195
:1012F0008330910581F013C0EBE3F0E08A818083B5
:101300000EC0E8E3F0E08A81808309C0E5E3F0E005
:101310008A81808304C0E2E3F0E08A8180830F90B9
:101320000F900F900F90CF91DF910895DF93CF939F
:10133000CDB7DEB7AFE5B0E0EFE5F0E080818068E3
:101340008C93CF91DF910895DF93CF93CDB7DEB724
:10135000AFE5B0E0EFE5F0E080818F778C93CF913F
:10136000DF910895DF93CF93CDB7DEB72F970FB6F8
:10137000F894DEBF0FBECDBF8F8781E060E040E014
:101380000E94EF0681E061E040E00E94EF0680E00D
:101390006F850E94550981E062E041E00E94EF06FE
:1013A00080E090E0A0E0B0E48B879C87AD87BE87AB
:1013B0006B857C858D859E8520E030E04AEF54E486
:1013C0000E941F02DC01CB018F839887A987BA870F
:1013D0006F81788589859A8520E030E040E85FE379
:1013E0000E94790388232CF481E090E09E838D8312
:1013F0003FC06F81788589859A8520E03FEF4FE770
:1014000057E40E94190318164CF56B857C858D8571
:101410009E8520E030E040E251E40E941F02DC01A2
:10142000CB01BC01CD010E944900DC01CB019E83B0
:101430008D830FC088EC90E09C838B838B819C8193
:101440000197F1F79C838B838D819E8101979E8309
:101450008D838D819E81009769F714C06F81788597
:1014600089859A850E944900DC01CB019E838D838A
:101470008D819E819A83898389819A810197F1F771
:101480009A83898381E062E040E00E94EF062F9614
:101490000FB6F894DEBF0FBECDBFCF91DF91089598
:1014A000DF93CF93CDB7DEB72F970FB6F894DEBF9B
:1014B0000FBECDBF8F8781E060E041E00E94EF0664
:1014C00081E061E040E00E94EF0680E06F850E94CD
:1014D000550981E062E041E00E94EF0680E090E083
:1014E000A0E0B0E48B879C87AD87BE876B857C8549
:1014F0008D859E8520E030E04AEF54E40E941F0273
:10150000DC01CB018F839887A987BA876F817885A3
:1015100089859A8520E030E040E85FE30E94790306
:1015200088232CF481E090E09E838D833FC06F81FF
:10153000788589859A8520E03FEF4FE757E40E9440
:10154000190318164CF56B857C858D859E8520E0EA
:1015500030E040E251E40E941F02DC01CB01BC01FB
:10156000CD010E944900DC01CB019E838D830FC019
:1015700088EC90E09C838B838B819C810197F1F7B1
:101580009C838B838D819E8101979E838D838D812A
:101590009E81009769F714C06F81788589859A8547
:1015A0000E944900DC01CB019E838D838D819E8149
:1015B0009A83898389819A810197F1F79A83898334
:1015C00081E062E040E00E94EF062F960FB6F894AB
:1015D000DEBF0FBECDBFCF91DF910895DF93CF93D4
:1015E000CDB7DEB72E970FB6F894DEBF0FBECDBFD6
:1015F00080E06FEF0E94140981E060E041E00E940A
:10160000E70581E061E041E00E94E70581E062E0FA
:1016100041E00E94E70580E090E0A0EFB1E48B8715
:101620009C87AD87BE876B857C858D859E8520E0F8
:1016300030E04AEF54E40E941F02DC01CB018F83AB
:101640009887A987BA876F81788589859A8520E0F0
:1016500030E040E85FE30E94790388232CF481E0C6
:1016600090E09E838D833FC06F81788589859A85C0
:1016700020E03FEF4FE757E40E94190318164CF59E
:101680006B857C858D859E8520E030E040E251E4CD
:101690000E941F02DC01CB01BC01CD010E94490068
:1016A000DC01CB019E838D830FC088EC90E09C838E
:1016B0008B838B819C810197F1F79C838B838D8138
:1016C0009E8101979E838D838D819E81009769F70E
:1016D00014C06F81788589859A850E944900DC0154
:1016E000CB019E838D838D819E819A83898389819D
:1016F0009A810197F1F79A83898388E30E94B2095E
:101700008CE00E94B20981E00E94B2092E960FB6C9
:10171000F894DEBF0FBECDBFCF91DF910895DF9368
:10172000CF9300D00F92CDB7DEB79B838A83198207
:101730000EC08981282F30E08A819B81FC01E20F55
:10174000F31F80810E94500A89818F5F898389817C
:10175000282F30E08A819B81FC01E20FF31F8081FA
:10176000882339F70F900F900F90CF91DF91089554
:10177000DF93CF9300D0CDB7DEB789836A838A81A8
:10178000803180F48981882319F08981813051F476
:101790008981813019F48A81805C8A838A818058AA
:1017A0000E94B2090F900F90CF91DF910895DF93BF
:1017B000CF93CDB7DEB727970FB6F894DEBF0FBE35
:1017C000CDBF9C838B836D834E832F838D81882F28
:1017D00090E0880F991F880F991F880F991F8A839F
:1017E0008A81805C0E94B20919820EC08981282FEB
:1017F00030E08B819C81FC01E20FF31F80810E940D
:10180000500A89818F5F89838981883078F38E813E
:101810006F810E94B80B8D810E94500A27960FB6E7
:10182000F894DEBF0FBECDBFCF91DF9108950F9327
:101830001F93DF93CF93CDB7DEB7C15FD0400FB614
:10184000F894DEBF0FBECDBFFE01E051FF4F918384
:101850008083FE01E151FF4F1082FE01E051FF4FF6
:101860008081918127E28031920708F48FC7DE01E1
:10187000A051BF4FFE01E051FF4F80819181805107
:1018800097428D939C93DE01A151BF4FFE01E15120
:10189000FF4F80818F5F8C93FE01E051FF4F80816D
:1018A0009181E7E280319E0710F7FE01E151FF4F81
:1018B0008081805D0E94500AFE01E151FF4F10823D
:1018C000FE01E051FF4F80819181F3E0883E9F0748
:1018D00008F4BAC3DE01A051BF4FFE01E051FF4F33
:1018E00080819181885E93408D939C93DE01A1510C
:1018F000BF4FFE01E151FF4F80818F5F8C93FE014E
:10190000E051FF4F8081918123E0883E920710F7DC
:10191000FE01E151FF4F8081805D0E94500AFE016F
:10192000E151FF4F1082FE01E051FF4F8081918114
:101930008436910508F4D5C1DE01A051BF4FFE01E8
:10194000E051FF4F80819181845690408D939C930C
:10195000DE01A151BF4FFE01E151FF4F80818F5F3A
:101960008C93FE01E051FF4F808191818436910577
:1019700018F7FE01E151FF4F8081805D0E94500AFF
:10198000FE01E151FF4F1082FE01E051FF4F8081C7
:1019900091818A30910508F4E2C0DE01A051BF4F69
:1019A000FE01E051FF4F808191810A978D939C93B6
:1019B000DE01A151BF4FFE01E151FF4F80818F5FDA
:1019C0008C93FE01E051FF4F808191818A30910517
:1019D00020F7FE01E151FF4F8081805D0E94500A97
:1019E000FE01E051FF4F8081805D0E94500AFE01A0
:1019F000E551FF4F80E090E0AAEFB3E4808391834C
:101A0000A283B3838E0109511F4FFE01E551FF4FA1
:101A1000608171818281938120E030E04AEF54E45B
:101A20000E941F02DC01CB01F80180839183A28315
:101A3000B383FE01E951FF4F6081718182819381FF
:101A400020E030E040E85FE30E947903882344F41B
:101A5000FE01EB51FF4F81E090E09183808364C0F1
:101A6000FE01E951FF4F608171818281938120E005
:101A70003FEF4FE757E40E94190318160CF043C0DC
:101A8000FE01E551FF4F608171818281938120E0E9
:101A900030E040E251E40E941F02DC01CB018E01E4
:101AA0000B511F4FBC01CD010E944900DC01CB014D
:101AB000F801918380831FC0FE01ED51FF4F88EC38
:101AC00090E091838083FE01ED51FF4F80819181F1
:101AD0000197F1F7FE01ED51FF4F91838083DE0105
:101AE000AB51BF4FFE01EB51FF4F808191810197B8
:101AF00011969C938E93FE01EB51FF4F8081918153
:101B00000097D1F627C08E010B511F4FFE01E951FE
:101B1000FF4F60817181828193810E944900DC01C5
:101B2000CB01F80191838083DE01AF51BF4FFE01ED
:101B3000EB51FF4F808191818D939C93FE01EF517A
:101B4000FF4F808191810197F1F7FE01EF51FF4F27
:101B50009183808381E00E94B2090C94C51A80E3CE
:101B60000E94500AFE01E051FF4F8081805D0E947B
:101B7000500AFE01E352FF4F80E090E0AAEFB3E489
:101B800080839183A283B3838E0107521F4FFE018E
:101B9000E352FF4F608171818281938120E030E0C8
:101BA0004AEF54E40E941F02DC01CB01F80180835C
:101BB0009183A283B383FE01E752FF4F608171815D
:101BC0008281938120E030E040E85FE30E94790366
:101BD000882344F4FE01E952FF4F81E090E09183B5
:101BE000808364C0FE01E752FF4F60817181828172
:101BF000938120E03FEF4FE757E40E941903181646
:101C00000CF043C0FE01E352FF4F6081718182817D
:101C1000938120E030E040E251E40E941F02DC01A9
:101C2000CB018E0109521F4FBC01CD010E9449001A
:101C3000DC01CB01F801918380831FC0FE01EB52D0
:101C4000FF4F88EC90E091838083FE01EB52FF4FC1
:101C5000808191810197F1F7FE01EB52FF4F918353
:101C60008083DE01A952BF4FFE01E952FF4F808100
:101C70009181019711969C938E93FE01E952FF4F3B
:101C8000808191810097D1F627C08E0109521F4FA4
:101C9000FE01E752FF4F60817181828193810E9432
:101CA0004900DC01CB01F80191838083DE01AD5254
:101CB000BF4FFE01E952FF4F808191818D939C932C
:101CC000FE01ED52FF4F808191810197F1F7FE01F6
:101CD000ED52FF4F9183808381E00E94B2090C9402
:101CE000C51AFE01E051FF4F808191818A30910534
:101CF00008F4E5C080E30E94500ADE01A051BF4F06
:101D0000FE01E051FF4F808191810A978D939C9352
:101D1000DE01A151BF4FFE01E151FF4F80818F5F76
:101D20008C93FE01E051FF4F808191818A309105B3
:101D300020F7FE01E151FF4F8081805D0E94500A33
:101D4000FE01E051FF4F8081805D0E94500AFE013C
:101D5000E153FF4F80E090E0AAEFB3E480839183EA
:101D6000A283B3838E0105531F4FFE01E153FF4F42
:101D7000608171818281938120E030E04AEF54E4F8
:101D80000E941F02DC01CB01F80180839183A283B2
:101D9000B383FE01E553FF4F60817181828193819E
:101DA00020E030E040E85FE30E947903882344F4B8
:101DB000FE01E753FF4F81E090E09183808364C090
:101DC000FE01E553FF4F608171818281938120E0A4
:101DD0003FEF4FE757E40E94190318160CF043C079
:101DE000FE01E153FF4F608171818281938120E088
:101DF00030E040E251E40E941F02DC01CB018E0181
:101E000007531F4FBC01CD010E944900DC01CB01EB
:101E1000F801918380831FC0FE01E953FF4F88ECD6
:101E200090E091838083FE01E953FF4F808191818F
:101E30000197F1F7FE01E953FF4F91838083DE01A3
:101E4000A753BF4FFE01E753FF4F80819181019758
:101E500011969C938E93FE01E753FF4F80819181F1
:101E60000097D1F627C08E0107531F4FFE01E5539F
:101E7000FF4F60817181828193810E944900DC0162
:101E8000CB01F80191838083DE01AB53BF4FFE018C
:101E9000E753FF4F808191818D939C93FE01EB531B
:101EA000FF4F808191810197F1F7FE01EB53FF4FC6
:101EB0009183808381E00E94B2090C94C51A80E36B
:101EC0000E94500A80E30E94500AFE01E051FF4F39
:101ED0008081805D0E94500AFE01EF53FF4F80E039
:101EE00090E0AAEFB3E480839183A283B3838E0151
:101EF00003541F4FFE01EF53FF4F608171818281B8
:101F0000938120E030E04AEF54E40E941F02DC019C
:101F1000CB01F80180839183A283B383FE01E35454
:101F2000FF4F608171818281938120E030E040E841
:101F30005FE30E947903882344F4FE01E554FF4FD8
:101F400081E090E09183808364C0FE01E354FF4F01
:101F5000608171818281938120E03FEF4FE757E4F8
:101F60000E94190318160CF043C0FE01EF53FF4FF7
:101F7000608171818281938120E030E040E251E410
:101F80000E941F02DC01CB018E0105541F4FBC01D2
:101F9000CD010E944900DC01CB01F80191838083CF
:101FA0001FC0FE01E754FF4F88EC90E091838083CF
:101FB000FE01E754FF4F808191810197F1F7FE0107
:101FC000E754FF4F91838083DE01A554BF4FFE018C
:101FD000E554FF4F80819181019711969C938E93D8
:101FE000FE01E554FF4F808191810097D1F627C013
:101FF0008E0105541F4FFE01E354FF4F6081718134
:10200000828193810E944900DC01CB01F801918318
:102010008083DE01A954BF4FFE01E554FF4F80814C
:1020200091818D939C93FE01E954FF4F80819181B2
:102030000197F1F7FE01E954FF4F9183808381E01E
:102040000E94B2090C94C51AFE01E051FF4F808135
:1020500091818436910508F4D8C180E30E94500A2A
:10206000DE01A051BF4FFE01E051FF4F8081918101
:10207000845690408D939C93DE01A151BF4FFE0189
:10208000E151FF4F80818F5F8C93FE01E051FF4F44
:10209000808191818436910518F7FE01E151FF4F4F
:1020A0008081805D0E94500AFE01E151FF4F108245
:1020B000FE01E051FF4F808191818A30910508F443
:1020C000E2C0DE01A051BF4FFE01E051FF4F808111
:1020D00091810A978D939C93DE01A151BF4FFE0120
:1020E000E151FF4F80818F5F8C93FE01E051FF4FE4
:1020F000808191818A30910520F7FE01E151FF4FE7
:102100008081805D0E94500AFE01E051FF4F808176
:10211000805D0E94500AFE01ED54FF4F80E090E088
:10212000AAEFB3E480839183A283B3838E01015528
:102130001F4FFE01ED54FF4F6081718182819381B9
:1021400020E030E04AEF54E40E941F02DC01CB01A2
:10215000F80180839183A283B383FE01E155FF4F91
:10216000608171818281938120E030E040E85FE30B
:102170000E947903882344F4FE01E355FF4F81E078
:1021800090E09183808364C0FE01E155FF4F608140
:1021900071818281938120E03FEF4FE757E40E94F5
:1021A000190318160CF043C0FE01ED54FF4F608177
:1021B00071818281938120E030E040E251E40E940D
:1021C0001F02DC01CB018E0103551F4FBC01CD0165
:1021D0000E944900DC01CB01F801918380831FC07C
:1021E000FE01E555FF4F88EC90E091838083FE016E
:1021F000E555FF4F808191810197F1F7FE01E5558B
:10220000FF4F91838083DE01A355BF4FFE01E3554D
:10221000FF4F80819181019711969C938E93FE01CF
:10222000E355FF4F808191810097D1F627C08E0141
:1022300003551F4FFE01E155FF4F6081718182817F
:1022400093810E944900DC01CB01F80191838083D6
:10225000DE01A755BF4FFE01E355FF4F80819181FD
:102260008D939C93FE01E755FF4F808191810197EB
:10227000F1F7FE01E755FF4F9183808381E00E94D3
:10228000B2090C94C51A80E30E94500AFE01E05185
:10229000FF4F8081805D0E94500AFE01EB55FF4F89
:1022A00080E090E0AAEFB3E480839183A283B383BC
:1022B0008E010F551F4FFE01EB55FF4F608171815D
:1022C0008281938120E030E04AEF54E40E941F02B3
:1022D000DC01CB01F80180839183A283B383FE01EB
:1022E000EF55FF4F608171818281938120E030E062
:1022F00040E85FE30E947903882344F4FE01E1563D
:10230000FF4F81E090E09183808364C0FE01EF5530
:10231000FF4F608171818281938120E03FEF4FE721
:1023200057E40E94190318160CF043C0FE01EB5548
:10233000FF4F608171818281938120E030E040E233
:1023400051E40E941F02DC01CB018E0101561F4F98
:10235000BC01CD010E944900DC01CB01F801918351
:1023600080831FC0FE01E356FF4F88EC90E091830D
:102370008083FE01E356FF4F808191810197F1F741
:10238000FE01E356FF4F91838083DE01A156BF4FCC
:10239000FE01E156FF4F80819181019711969C9338
:1023A0008E93FE01E156FF4F808191810097D1F617
:1023B00027C08E0101561F4FFE01EF55FF4F608170
:1023C0007181828193810E944900DC01CB01F80177
:1023D00091838083DE01A556BF4FFE01E156FF4F7A
:1023E000808191818D939C93FE01E556FF4F808102
:1023F00091810197F1F7FE01E556FF4F91838083AC
:1024000081E00E94B2090C94C51AFE01E051FF4F11
:10241000808191818A30910508F4F1C0FE01E0517C
:10242000FF4F808191818436910508F0E8C080E3F8
:102430000E94500A80E30E94500ADE01A051BF4F63
:10244000FE01E051FF4F808191810A978D939C930B
:10245000DE01A151BF4FFE01E151FF4F80818F5F2F
:102460008C93FE01E051FF4F808191818A3091056C
:1024700020F7FE01E151FF4F8081805D0E94500AEC
:10248000FE01E051FF4F8081805D0E94500AFE01F5
:10249000E956FF4F80E090E0AAEFB3E48083918398
:1024A000A283B3838E010D561F4FFE01E956FF4FE5
:1024B000608171818281938120E030E04AEF54E4B1
:1024C0000E941F02DC01CB01F80180839183A2836B
:1024D000B383FE01ED56FF4F60817181828193814C
:1024E00020E030E040E85FE30E947903882344F471
:1024F000FE01EF56FF4F81E090E09183808364C03E
:10250000FE01ED56FF4F608171818281938120E051
:102510003FEF4FE757E40E94190318160CF043C031
:10252000FE01E956FF4F608171818281938120E035
:1025300030E040E251E40E941F02DC01CB018E0139
:102540000F561F4FBC01CD010E944900DC01CB0199
:10255000F801918380831FC0FE01E157FF4F88EC93
:1025600090E091838083FE01E157FF4F808191814C
:102570000197F1F7FE01E157FF4F91838083DE0160
:10258000AF56BF4FFE01EF56FF4F808191810197FB
:1025900011969C938E93FE01EF56FF4F808191819F
:1025A0000097D1F627C08E010F561F4FFE01ED5642
:1025B000FF4F60817181828193810E944900DC011B
:1025C000CB01F80191838083DE01A357BF4FFE0149
:1025D000EF56FF4F808191818D939C93FE01E357CD
:1025E000FF4F808191810197F1F7FE01E357FF4F83
:1025F0009183808381E00E94B2090C94C51A80E324
:102600000E94500A80E30E94500A80E30E94500A10
:10261000FE01E051FF4F8081805D0E94500AFE0163
:10262000E757FF4F80E090E0AAEFB3E48083918307
:10263000A283B3838E010B571F4FFE01E757FF4F55
:10264000608171818281938120E030E04AEF54E41F
:102650000E941F02DC01CB01F80180839183A283D9
:10266000B383FE01EB57FF4F6081718182819381BB
:1026700020E030E040E85FE30E947903882344F4DF
:10268000FE01ED57FF4F81E090E09183808364C0AD
:10269000FE01EB57FF4F608171818281938120E0C1
:1026A0003FEF4FE757E40E94190318160CF043C0A0
:1026B000FE01E757FF4F608171818281938120E0A5
:1026C00030E040E251E40E941F02DC01CB018E01A8
:1026D0000D571F4FBC01CD010E944900DC01CB0109
:1026E000F801918380831FC0FE01EF57FF4F88ECF4
:1026F00090E091838083FE01EF57FF4F80819181AD
:102700000197F1F7FE01EF57FF4F91838083DE01C0
:10271000AD57BF4FFE01ED57FF4F8081918101976B
:1027200011969C938E93FE01ED57FF4F808191810E
:102730000097D1F627C08E010D571F4FFE01EB57B2
:10274000FF4F60817181828193810E944900DC0189
:10275000CB01F80191838083DE01A158BF4FFE01B8
:10276000ED57FF4F808191818D939C93FE01E1583D
:10277000FF4F808191810197F1F7FE01E158FF4FF2
:102780009183808381E00E94B209FFC6FE01E0517F
:10279000FF4F80819181F3E0883E9F0708F4C9C311
:1027A000FE01E051FF4F8081918127E28031920745
:1027B00008F0BFC3DE01A051BF4FFE01E051FF4F43
:1027C00080819181885E93408D939C93DE01A1511D
:1027D000BF4FFE01E151FF4F80818F5F8C93FE015F
:1027E000E051FF4F80819181E3E0883E9E0710F722
:1027F000FE01E151FF4F8081805D0E94500AFE0181
:10280000E151FF4F1082FE01E051FF4F8081918125
:102810008436910508F4D3C1DE01A051BF4FFE01FB
:10282000E051FF4F80819181845690408D939C931D
:10283000DE01A151BF4FFE01E151FF4F80818F5F4B
:102840008C93FE01E051FF4F808191818436910588
:1028500018F7FE01E151FF4F8081805D0E94500A10
:10286000FE01E151FF4F1082FE01E051FF4F8081D8
:1028700091818A30910508F4E1C0DE01A051BF4F7B
:10288000FE01E051FF4F808191810A978D939C93C7
:10289000DE01A151BF4FFE01E151FF4F80818F5FEB
:1028A0008C93FE01E051FF4F808191818A30910528
:1028B00020F7FE01E151FF4F8081805D0E94500AA8
:1028C000FE01E051FF4F8081805D0E94500AFE01B1
:1028D000E558FF4F80E090E0AAEFB3E48083918356
:1028E000A283B3838E0109581F4FFE01E558FF4FA5
:1028F000608171818281938120E030E04AEF54E46D
:102900000E941F02DC01CB01F80180839183A28326
:10291000B383FE01E958FF4F608171818281938109
:1029200020E030E040E85FE30E947903882344F42C
:10293000FE01EB58FF4F81E090E09183808364C0FB
:10294000FE01E958FF4F608171818281938120E00F
:102950003FEF4FE757E40E94190318160CF043C0ED
:10296000FE01E558FF4F608171818281938120E0F3
:1029700030E040E251E40E941F02DC01CB018E01F5
:102980000B581F4FBC01CD010E944900DC01CB0157
:10299000F801918380831FC0FE01ED58FF4F88EC42
:1029A00090E091838083FE01ED58FF4F80819181FB
:1029B0000197F1F7FE01ED58FF4F91838083DE010F
:1029C000AB58BF4FFE01EB58FF4F808191810197BB
:1029D00011969C938E93FE01EB58FF4F808191815D
:1029E0000097D1F627C08E010B581F4FFE01E95802
:1029F000FF4F60817181828193810E944900DC01D7
:102A0000CB01F80191838083DE01AF58BF4FFE01F7
:102A1000EB58FF4F808191818D939C93FE01EF587D
:102A2000FF4F808191810197F1F7FE01EF58FF4F31
:102A30009183808381E00E94B209A7C580E30E9450
:102A4000500AFE01E051FF4F8081805D0E94500AD4
:102A5000FE01E359FF4F80E090E0AAEFB3E48083EA
:102A60009183A283B3838E0107591F4FFE01E3595F
:102A7000FF4F608171818281938120E030E04AEFD5
:102A800054E40E941F02DC01CB01F8018083918392
:102A9000A283B383FE01E759FF4F60817181828178
:102AA000938120E030E040E85FE30E9479038823CF
:102AB00044F4FE01E959FF4F81E090E09183808367
:102AC00064C0FE01E759FF4F60817181828193816B
:102AD00020E03FEF4FE757E40E94190318160CF06F
:102AE00043C0FE01E359FF4F608171818281938170
:102AF00020E030E040E251E40E941F02DC01CB0103
:102B00008E0109591F4FBC01CD010E944900DC0113
:102B1000CB01F801918380831FC0FE01EB59FF4F69
:102B200088EC90E091838083FE01EB59FF4F808118
:102B300091810197F1F7FE01EB59FF4F918380835B
:102B4000DE01A959BF4FFE01E959FF4F80819181F4
:102B5000019711969C938E93FE01E959FF4F808156
:102B600091810097D1F627C08E0109591F4FFE01B0
:102B7000E759FF4F60817181828193810E944900F2
:102B8000DC01CB01F80191838083DE01AD59BF4F99
:102B9000FE01E959FF4F808191818D939C93FE0145
:102BA000ED59FF4F808191810197F1F7FE01ED59B9
:102BB000FF4F9183808381E00E94B209E6C4FE0149
:102BC000E051FF4F808191818A30910508F4EDC07A
:102BD000FE01E051FF4F808191818436910508F01C
:102BE000E4C080E30E94500ADE01A051BF4FFE0105
:102BF000E051FF4F808191810A978D939C93DE0174
:102C0000A151BF4FFE01E151FF4F80818F5F8C9337
:102C1000FE01E051FF4F808191818A30910520F7BC
:102C2000FE01E151FF4F8081805D0E94500AFE014C
:102C3000E051FF4F8081805D0E94500AFE01E15A01
:102C4000FF4F80E090E0AAEFB3E480839183A283FA
:102C5000B3838E01055A1F4FFE01E15AFF4F608179
:102C600071818281938120E030E04AEF54E40E9438
:102C70001F02DC01CB01F80180839183A283B3831F
:102C8000FE01E55AFF4F608171818281938120E0CE
:102C900030E040E85FE30E947903882344F4FE01BA
:102CA000E75AFF4F81E090E09183808364C0FE018A
:102CB000E55AFF4F608171818281938120E03FEF6F
:102CC0004FE757E40E94190318160CF043C0FE01A9
:102CD000E15AFF4F608171818281938120E030E071
:102CE00040E251E40E941F02DC01CB018E01075A31
:102CF0001F4FBC01CD010E944900DC01CB01F8014E
:102D0000918380831FC0FE01E95AFF4F88EC90E059
:102D100091838083FE01E95AFF4F80819181019761
:102D2000F1F7FE01E95AFF4F91838083DE01A75A34
:102D3000BF4FFE01E75AFF4F8081918101971196A5
:102D40009C938E93FE01E75AFF4F808191810097FB
:102D5000D1F627C08E01075A1F4FFE01E55AFF4FDB
:102D600060817181828193810E944900DC01CB01E5
:102D7000F80191838083DE01AB5ABF4FFE01E75A11
:102D8000FF4F808191818D939C93FE01EB5AFF4F01
:102D9000808191810197F1F7FE01EB5AFF4F9183FA
:102DA000808381E00E94B209F0C380E30E94500A50
:102DB00080E30E94500AFE01E051FF4F8081805D58
:102DC0000E94500AFE01EF5AFF4F80E090E0AAEF08
:102DD000B3E480839183A283B3838E01035B1F4F8F
:102DE000FE01EF5AFF4F608171818281938120E063
:102DF00030E04AEF54E40E941F02DC01CB01F801ED
:102E000080839183A283B383FE01E35BFF4F6081E4
:102E100071818281938120E030E040E85FE30E948D
:102E20007903882344F4FE01E55BFF4F81E090E0E5
:102E30009183808364C0FE01E35BFF4F60817181F9
:102E40008281938120E03FEF4FE757E40E9419030E
:102E500018160CF043C0FE01EF5AFF4F60817181DC
:102E60008281938120E030E040E251E40E941F0221
:102E7000DC01CB018E01055B1F4FBC01CD010E941F
:102E80004900DC01CB01F801918380831FC0FE0162
:102E9000E75BFF4F88EC90E091838083FE01E75B66
:102EA000FF4F808191810197F1F7FE01E75BFF4FB2
:102EB00091838083DE01A55BBF4FFE01E55BFF4F81
:102EC00080819181019711969C938E93FE01E55B21
:102ED000FF4F808191810097D1F627C08E01055B5D
:102EE0001F4FFE01E35BFF4F6081718182819381FF
:102EF0000E944900DC01CB01F80191838083DE014F
:102F0000A95BBF4FFE01E55BFF4F808191818D93EF
:102F10009C93FE01E95BFF4F808191810197F1F75E
:102F2000FE01E95BFF4F9183808381E00E94B2093B
:102F30002CC3FE01E051FF4F8081918184369105C1
:102F400008F46EC1FE01E051FF4F80819181F3E0F2
:102F5000883E9F0708F064C1DE01A051BF4FFE010B
:102F6000E051FF4F80819181845690408D939C93D6
:102F7000DE01A151BF4FFE01E151FF4F80818F5F04
:102F80008C93FE01E051FF4F808191818436910541
:102F900018F7FE01E151FF4F8081805D0E94500AC9
:102FA000FE01E151FF4F1082FE01E051FF4F808191
:102FB00091818A30910508F4B3C0DE01A051BF4F62
:102FC000FE01E051FF4F808191810A978D939C9380
:102FD000DE01A151BF4FFE01E151FF4F80818F5FA4
:102FE0008C93FE01E051FF4F808191818A309105E1
:102FF00020F7FE01E151FF4F8081805D0E94500A61
:10300000FE01E051FF4F8081805D0E94500AFE0169
:10301000ED5BFF4F80E090E0AAEFB3E48083918303
:10302000A283B3838E01015C1F4FFE01ED5BFF4F56
:10303000608171818281938120E030E04AEF54E425
:103040000E941F02DC01CB01F80180839183A283DF
:10305000B383FE01FF96608171818281938120E0BC
:1030600030E040E85FE30E94790388232CF481E09C
:1030700090E09EAF8DAF46C0FE01FF9660817181EA
:103080008281938120E03FEF4FE757E40E941903CC
:10309000181664F5FE01ED5BFF4F6081718182813E
:1030A000938120E030E040E251E40E941F02DC0105
:1030B000CB01BC01CD010E944900DC01CB019EAFD8
:1030C0008DAF0FC088EC90E09CAF8BAF8BAD9CAD0B
:1030D0000197F1F79CAF8BAF8DAD9EAD01979EAF81
:1030E0008DAF8DAD9EAD009769F716C0FE01FF96BE
:1030F00060817181828193810E944900DC01CB0152
:103100009EAF8DAF8DAD9EAD9AAF89AF89AD9AADB3
:103110000197F1F79AAF89AF81E00E94B20935C2F9
:1031200080E30E94500AFE01E051FF4F8081805DE4
:103130000E94500A80E090E0AAEFB3E48DAB9EAB12
:10314000AFABB8AF6DA97EA98FA998AD20E030E0F4
:103150004AEF54E40E941F02DC01CB0189AB9AAB19
:10316000ABABBCAB69A97AA98BA99CA920E030E0E4
:1031700040E85FE30E94790388232CF481E090E02B
:1031800098AB8FA73FC069A97AA98BA99CA920E019
:103190003FEF4FE757E40E94190318164CF56DA94D
:1031A0007EA98FA998AD20E030E040E251E40E9472
:1031B0001F02DC01CB01BC01CD010E944900DC01F2
:1031C000CB0198AB8FA70FC088EC90E09EA78DA78E
:1031D0008DA59EA50197F1F79EA78DA78FA598A90C
:1031E000019798AB8FA78FA598A9009769F714C08E
:1031F00069A97AA98BA99CA90E944900DC01CB018D
:1032000098AB8FA78FA598A99CA78BA78BA59CA5EA
:103210000197F1F79CA78BA781E00E94B209B5C185
:10322000FE01E051FF4F808191818A30910508F4C1
:10323000A9C0FE01E051FF4F808191818436910544
:1032400008F0A0C0DE01A051BF4FFE01E051FF4FCA
:10325000808191810A978D939C93DE01A151BF4F8C
:10326000FE01E151FF4F80818F5F8C93FE01E051A1
:10327000FF4F808191818A30910520F7FE01E15155
:10328000FF4F8081805D0E94500AFE01E051FF4F98
:103290008081805D0E94500A80E090E0AAEFB3E454
:1032A0008FA398A7A9A7BAA76FA178A589A59AA562
:1032B00020E030E04AEF54E40E941F02DC01CB0121
:1032C0008BA39CA3ADA3BEA36BA17CA18DA19EA14A
:1032D00020E030E040E85FE30E94790388232CF48B
:1032E00081E090E09AA389A33FC06BA17CA18DA14E
:1032F0009EA120E03FEF4FE757E40E941903181604
:103300004CF56FA178A589A59AA520E030E040E2B0
:1033100051E40E941F02DC01CB01BC01CD010E94DF
:103320004900DC01CB019AA389A30FC088EC90E08F
:1033300098A38F8F8F8D98A10197F1F798A38F8F06
:1033400089A19AA101979AA389A389A19AA100971B
:1033500069F714C06BA17CA18DA19EA10E944900B8
:10336000DC01CB019AA389A389A19AA19E8F8D8F9D
:103370008D8D9E8D0197F1F79E8F8D8F81E00E943C
:10338000B20903C1FE01E051FF4F808191818A3073
:10339000910508F07DC0FE01E051FF4F8081805D06
:1033A0000E94500A80E090E0AAEFB3E4898F9A8FE0
:1033B000AB8FBC8F698D7A8D8B8D9C8D20E030E03A
:1033C0004AEF54E40E941F02DC01CB018D8B9E8BDF
:1033D000AF8BB88F6D897E898F89988D20E030E022
:1033E00040E85FE30E94790388232CF481E090E0B9
:1033F0009C8B8B8B3FC06D897E898F89988D20E057
:103400003FEF4FE757E40E94190318164CF5698DFA
:103410007A8D8B8D9C8D20E030E040E251E40E945B
:103420001F02DC01CB01BC01CD010E944900DC017F
:10343000CB019C8B8B8B0FC088EC90E09A8B898B97
:1034400089899A890197F1F79A8B898B8B899C8955
:1034500001979C8B8B8B8B899C89009769F714C093
:103460006D897E898F89988D0E944900DC01CB018E
:103470009C8B8B8B8B899C89988B8F878F85988968
:103480000197F1F7988B8F8781E00E94B2097DC088
:1034900081E060E00E94B80B80E690E00E948F0B14
:1034A00080E090E0AAEFB3E48B879C87AD87BE876E
:1034B0006B857C858D859E8520E030E04AEF54E465
:1034C0000E941F02DC01CB018F839887A987BA87EE
:1034D0006F81788589859A8520E030E040E85FE358
:1034E0000E94790388232CF481E090E09E838D83F1
:1034F0003FC06F81788589859A8520E03FEF4FE74F
:1035000057E40E94190318164CF56B857C858D8550
:103510009E8520E030E040E251E40E941F02DC0181
:10352000CB01BC01CD010E944900DC01CB019E838F
:103530008D830FC088EC90E09C838B838B819C8172
:103540000197F1F79C838B838D819E8101979E83E8
:103550008D838D819E81009769F714C06F81788576
:1035600089859A850E944900DC01CB019E838D8369
:103570008D819E819A83898389819A810197F1F750
:103580009A83898381E00E94B209CF50DF4F0FB642
:10359000F894DEBF0FBECDBFCF91DF911F910F9189
:1035A0000895DF93CF93CDB7DEB7A3E5B0E0E3E5B1
:1035B000F0E080818F7B8C93A3E5B0E0E3E5F0E061
:1035C000808188608C93ECE5F0E08AEF8083A9E548
:1035D000B0E0E9E5F0E0808182608C93A3E5B0E0A3
:1035E000E3E5F0E08081887F8C93A3E5B0E0E3E53C
:1035F000F0E0808182608C93CF91DF910895DF931A
:10360000CF9300D0CDB7DEB79A83898389819A8121
:10361000009731F089819A8190935D0180935C01DC
:103620000F900F90CF91DF9108951F920F920FB6D8
:103630000F9211242F933F934F935F936F937F9338
:103640008F939F93AF93BF93EF93FF93DF93CF93AA
:10365000CDB7DEB780915E0190915F01A0916001CE
:10366000B09161010196A11DB11D80935E019093FF
:103670005F01A0936001B093610180915E01909120
:103680005F01A0916001B0916101803326EE920745
:1036900022E0A20720E0B20799F480915C019091AA
:1036A0005D01009769F0E0915C01F0915D01099581
:1036B00010925E0110925F01109260011092610100
:1036C000CF91DF91FF91EF91BF91AF919F918F913A
:1036D0007F916F915F914F913F912F910F900FBE0E
:1036E0000F901F901895DF93CF930F92CDB7DEB751
:1036F000198289818068898389818F7B8983898107
:103700008F7D898389818F7E89838981877F898362
:10371000898184608983898182608983AAE2B0E09B
:10372000EAE2F0E080818B7F8C93E0E4F0E0898135
:103730008083E9E2F0E083E38083AAE2B0E0EAE29A
:10374000F0E0808180618C93AAE2B0E0EAE2F0E0F0
:10375000808188608C930F90CF91DF910895DF93E3
:10376000CF930F92CDB7DEB78983EBE2F0E0808193
:10377000829586958770882F90E081709070009771
:10378000A1F3ECE2F0E0898180830F90CF91DF918B
:103790000895DF93CF93CDB7DEB7EBE2F0E0808101
:1037A0008823DCF7ECE2F0E08081CF91DF9108958F
:1037B000DF93CF93CDB7DEB7AD970FB6F894DEBFEA
:1037C0000FBECDBF1BA682E061E041E00E94E7058D
:1037D00082E063E041E00E94E7050E94EE0A0E9459
:1037E000731B0E94A3050E94C01D80916301853058
:1037F00009F029C11BA681E00E94B2098DE690E084
:103800000E948F0B81E060E00E94B80B8AE790E095
:103810000E948F0B80E090E0AAEFB3E48FA398A7FB
:10382000A9A7BAA76FA178A589A59AA520E030E03D
:103830004AEF54E40E941F02DC01CB018BA39CA33E
:10384000ADA3BEA36BA17CA18DA19EA120E030E021
:1038500040E85FE30E94790388232CF481E090E044
:103860009AA389A33FC06BA17CA18DA19EA120E05A
:103870003FEF4FE757E40E94190318164CF56FA16C
:1038800078A589A59AA520E030E040E251E40E94A5
:103890001F02DC01CB01BC01CD010E944900DC010B
:1038A000CB019AA389A30FC088EC90E098A38F8FD7
:1038B0008F8D98A10197F1F798A38F8F89A19AA175
:1038C00001979AA389A389A19AA1009769F714C0C7
:1038D0006BA17CA18DA19EA10E944900DC01CB01BE
:1038E0009AA389A389A19AA19E8F8D8F8D8D9E8D7C
:1038F0000197F1F79E8F8D8F81E00E94B20980E0E1
:1039000060E00E94B80B89E890E00E948F0B81E094
:1039100060E00E94B80B87E990E00E948F0B0E9444
:10392000C91B282F30E03DA72CA78CA59DA58B3265
:10393000910531F02CA53DA52D32310521F006C0B1
:103940000E94B11E50CF0E94001E4DCF81E00E9408
:10395000B20987EA90E00E948F0B80E090E0AAEF26
:10396000B3E4898F9A8FAB8FBC8F698D7A8D8B8DE5
:103970009C8D20E030E04AEF54E40E941F02DC01FD
:10398000CB018D8B9E8BAF8BB88F6D897E898F8994
:10399000988D20E030E040E85FE30E9479038823BF
:1039A0002CF481E090E09C8B8B8B3FC06D897E89ED
:1039B0008F89988D20E03FEF4FE757E40E9419036D
:1039C00018164CF5698D7A8D8B8D9C8D20E030E03A
:1039D00040E251E40E941F02DC01CB01BC01CD0199
:1039E0000E944900DC01CB019C8B8B8B0FC088ECC3
:1039F00090E09A8B898B89899A890197F1F79A8B44
:103A0000898B8B899C8901979C8B8B8B8B899C895B
:103A1000009769F714C06D897E898F89988D0E94FF
:103A20004900DC01CB019C8B8B8B8B899C89988B0B
:103A30008F878F8598890197F1F7988B8F8781E021
:103A40000E94B209D0CE8BA5823009F48AC081E0F1
:103A50000E94B20984EB90E00E948F0B82E061E04B
:103A600041E00E94EF0680E090E0AAEFB3E48B878C
:103A70009C87AD87BE876B857C858D859E8520E084
:103A800030E04AEF54E40E941F02DC01CB018F8337
:103A90009887A987BA876F81788589859A8520E07C
:103AA00030E040E85FE30E94790388232CF481E052
:103AB00090E09E838D833FC06F81788589859A854C
:103AC00020E03FEF4FE757E40E94190318164CF52A
:103AD0006B857C858D859E8520E030E040E251E459
:103AE0000E941F02DC01CB01BC01CD010E944900F4
:103AF000DC01CB019E838D830FC088EC90E09C831A
:103B00008B838B819C810197F1F79C838B838D81C3
:103B10009E8101979E838D838D819E81009769F799
:103B200014C06F81788589859A850E944900DC01DF
:103B3000CB019E838D838D819E819A838983898128
:103B40009A810197F1F79A83898382E061E040E0EE
:103B50000E94EF0681E00E94B2098BA58F5F8BA7C0
:103B600042CE0E946F200E94202180E090E0AD961E
:103B70000FB6F894DEBF0FBECDBFCF91DF91089591
:103B8000DF93CF9300D0CDB7DEB71092630183EC03
:103B900090E00E948F0B81E060E00E94B80B1982D8
:103BA00027C00E94C91B8A838AE20E94500A898129
:103BB000282F30E08A818053F901EB59FE4F808332
:103BC0008981882F90E0FC01EB59FE4F208189818B
:103BD000882F90E0FC01EA5AFE4F8081281729F4D3
:103BE000809163018F5F8093630189818F5F8983F7
:103BF00089818530B0F20F900F90CF91DF910895B9
:103C0000DF93CF93CDB7DEB760970FB6F894DEBFE2
:103C10000FBECDBF81E00E94B2098FEC90E00E9400
:103C20008F0B81E060E00E94B80B1F8612C00E94DB
:103C3000C91B888B8AE20E94500A8F85282F30E0AA
:103C400088898053F901EA5AFE4F80838F858F5F00
:103C50008F878F85853058F381E00E94B2098FED00
:103C600090E00E948F0B80E090E0AAEFB3E48B8796
:103C70009C87AD87BE876B857C858D859E8520E082
:103C800030E04AEF54E40E941F02DC01CB018F8335
:103C90009887A987BA876F81788589859A8520E07A
:103CA00030E040E85FE30E94790388232CF481E050
:103CB00090E09E838D833FC06F81788589859A854A
:103CC00020E03FEF4FE757E40E94190318164CF528
:103CD0006B857C858D859E8520E030E040E251E457
:103CE0000E941F02DC01CB01BC01CD010E944900F2
:103CF000DC01CB019E838D830FC088EC90E09C8318
:103D00008B838B819C810197F1F79C838B838D81C1
:103D10009E8101979E838D838D819E81009769F797
:103D200014C06F81788589859A850E944900DC01DD
:103D3000CB019E838D838D819E819A838983898126
:103D40009A810197F1F79A83898381E00E94B209F1
:103D500060960FB6F894DEBF0FBECDBFCF91DF9156
:103D60000895DF93CF93CDB7DEB76C970FB6F89475
:103D7000DEBF0FBECDBF81E00E94B20980EF90E0B0
:103D80000E948F0B0E94B40580E090E0AAE7B4E4A3
:103D9000898F9A8FAB8FBC8F698D7A8D8B8D9C8D1F
:103DA00020E030E04AEF54E40E941F02DC01CB0126
:103DB0008D8B9E8BAF8BB88F6D897E898F89988D07
:103DC00020E030E040E85FE30E94790388232CF490
:103DD00081E090E09C8B8B8B3FC06D897E898F89C1
:103DE000988D20E03FEF4FE757E40E941903181623
:103DF0004CF5698D7A8D8B8D9C8D20E030E040E212
:103E000051E40E941F02DC01CB01BC01CD010E94E4
:103E10004900DC01CB019C8B8B8B0FC088EC90E0C0
:103E20009A8B898B89899A890197F1F79A8B898B6B
:103E30008B899C8901979C8B8B8B8B899C890097A4
:103E400069F714C06D897E898F89988D0E94490019
:103E5000DC01CB019C8B8B8B8B899C89988B8F870A
:103E60008F8598890197F1F7988B8F870E94D605E7
:103E700081E00E94B20980E091E00E948F0B81E016
:103E800060E00E94B80B8CE091E00E948F0B8CEDFB
:103E90009FE10E94FF1A0E9496090E94D11A809108
:103EA00062018823E1F381E00E94B20989E191E097
:103EB0000E948F0B80E090E0AAEFB3E48B879C8791
:103EC000AD87BE876B857C858D859E8520E030E043
:103ED0004AEF54E40E941F02DC01CB018F839887D4
:103EE000A987BA876F81788589859A8520E030E037
:103EF00040E85FE30E94790388232CF481E090E09E
:103F00009E838D833FC06F81788589859A8520E067
:103F10003FEF4FE757E40E94190318164CF56B85E5
:103F20007C858D859E8520E030E040E251E40E9452
:103F30001F02DC01CB01BC01CD010E944900DC0164
:103F4000CB019E838D830FC088EC90E09C838B8394
:103F50008B819C810197F1F79C838B838D819E815E
:103F600001979E838D838D819E81009769F714C090
:103F70006F81788589859A850E944900DC01CB0193
:103F80009E838D838D819E819A83898389819A8185
:103F90000197F1F79A83898381E00E94B209109218
:103FA00062010E94A4096C960FB6F894DEBF0FBEA2
:103FB000CDBFCF91DF910895DF93CF93CDB7DEB71B
:103FC0002E970FB6F894DEBF0FBECDBF81E00E94E2
:103FD000B20989E291E00E948F0B0E94C50580E042
:103FE00090E0AAE7B4E48B879C87AD87BE876B859A
:103FF0007C858D859E8520E030E04AEF54E40E9468
:104000001F02DC01CB018F839887A987BA876F8154
:10401000788589859A8520E030E040E85FE30E945A
:10402000790388232CF481E090E09E838D833FC048
:104030006F81788589859A8520E03FEF4FE757E4C7
:104040000E94190318164CF56B857C858D859E851D
:1040500020E030E040E251E40E941F02DC01CB018D
:10406000BC01CD010E944900DC01CB019E838D8300
:104070000FC088EC90E09C838B838B819C8101979F
:10408000F1F79C838B838D819E8101979E838D8325
:104090008D819E81009769F714C06F81788589852D
:1040A0009A850E944900DC01CB019E838D838D811E
:1040B0009E819A83898389819A810197F1F79A83F6
:1040C00089830E94D60581E0809362012E960FB607
:1040D000F894DEBF0FBECDBFCF91DF910895DF937F
:1040E000CF93CDB7DEB72F970FB6F894DEBF0FBED4
:1040F000CDBF81E00E94B20988E391E00E948F0B5E
:10410000109264018FC090915B0182E061E0492FC1
:104110000E94EF0690915B0182E063E0492F0E94CC
:10412000EF0680E090E0A8ECB2E48B879C87AD8737
:10413000BE876B857C858D859E8520E030E04AEFCB
:1041400054E40E941F02DC01CB018F839887A9876A
:10415000BA876F81788589859A8520E030E040E8CC
:104160005FE30E94790388232CF481E090E09E8332
:104170008D833FC06F81788589859A8520E03FEFE8
:104180004FE757E40E94190318164CF56B857C85A0
:104190008D859E8520E030E040E251E40E941F02C0
:1041A000DC01CB01BC01CD010E944900DC01CB0147
:1041B0009E838D830FC088EC90E09C838B838B81E2
:1041C0009C810197F1F79C838B838D819E81019760
:1041D0009E838D838D819E81009769F714C06F81C6
:1041E000788589859A850E944900DC01CB019E83F0
:1041F0008D838D819E819A83898389819A8101979C
:10420000F1F79A83898380915B011F86882311F4DB
:1042100081E08F878F8580935B01809164018F5F40
:104220008093640180916401823308F46CCF2F96EF
:104230000FB6F894DEBF0FBECDBFCF91DF910895CA
:10424000DF93CF93CDB7DEB781E00E94B20982E061
:1042500061E040E00E94EF0682E063E040E00E94FF
:10426000EF060E94D6058FE391E00E948F0BCF915D
:10427000DF9108952F923F924F925F926F927F92BB
:104280008F929F92AF92BF92CF92DF92EF92FF9266
:104290000F931F93CF93DF93CDB7DEB7CA1BDB0B12
:1042A0000FB6F894DEBF0FBECDBF09942A883988B7
:1042B00048885F846E847D848C849B84AA84B984BE
:1042C000C884DF80EE80FD800C811B81AA81B981CA
:1042D000CE0FD11D0FB6F894DEBF0FBECDBFED01DE
:0642E0000895F894FFCFE1
:1042E6004F7574204F662052616E6765004D61748C
:1042F600636865642050617373004C6F6164206F5E
:104306007074696F6E732E2E004F70656E20446F49
:104316006F722D3E202B004368616E6765205061E9
:1043260073732D3E202D0057726F6E672043686FA2
:104336006963650057726F6E672050617373776F9C
:10434600726400456E74657220506173733A00455D
:104356006E746572206E657720506173733A002D16
:104366002D70617373206368616E6765642D2D001F
:10437600446F6F72204F70656E6E696E672E2E00E9
:10438600596F752061726520496E2100752068613C
:1043960076652031206D696E00446F6F72206973F7
:1043A60020436C6F7365642100446F6F7220436C09
:1043B6006F73696E672E2E00416C61726D2100531A
:1043C600637265656E204C6F636B65642100000047
:0C43D600000000000000010203040501CB
:00000001FF
