:100000000C942A000C943F000C943F000C943F0089
:100010000C943F000C943F000C943F000C943F0064
:100020000C943F000C943F000C943F000C943F0054
:100030000C943F000C943F000C943F000C943F0044
:100040000C943F000C943F000C943F000C943F0034
:100050000C943F0011241FBECFE5D8E0DEBFCDBF1A
:1000600010E0A0E6B0E0EAEBF9E002C005900D92E6
:10007000A037B107D9F70E94C8040C94DB040C9494
:100080000000DF93CF93CDB7DEB727970FB6F89474
:10009000DEBF0FBECDBF89836A834B8389818430E5
:1000A00008F0EEC08A81883008F0EAC08B81813088
:1000B00009F06FC08981282F30E03F832E838E8125
:1000C0009F818130910549F12E813F812230310598
:1000D0002CF48E819F81009761F0D2C02E813F81E8
:1000E0002230310571F18E819F8183309105E9F1D4
:1000F000C7C0AAE3B0E0EAE3F0E08081482F8A813C
:10010000282F30E081E090E0022E02C0880F991F76
:100110000A94E2F7842B8C93B3C0A7E3B0E0E7E343
:10012000F0E08081482F8A81282F30E081E090E044
:10013000022E02C0880F991F0A94E2F7842B8C9339
:100140009FC0A4E3B0E0E4E3F0E08081482F8A811F
:10015000282F30E081E090E0022E02C0880F991F26
:100160000A94E2F7842B8C938BC0A1E3B0E0E1E327
:10017000F0E08081482F8A81282F30E081E090E0F4
:10018000022E02C0880F991F0A94E2F7842B8C93E9
:1001900077C08B81882309F073C08981282F30E0D4
:1001A0003D832C838C819D818130910559F12C8177
:1001B0003D81223031052CF48C819D81009769F0BE
:1001C0005FC02C813D812230310589F18C819D8178
:1001D0008330910509F440C053C0AAE3B0E0EAE3DC
:1001E000F0E08081482F8A81282F30E081E090E084
:1001F000022E02C0880F991F0A94E2F7809584238B
:100200008C933EC0A7E3B0E0E7E3F0E08081482FA5
:100210008A81282F30E081E090E0022E02C0880F12
:10022000991F0A94E2F7809584238C9329C0A4E354
:10023000B0E0E4E3F0E08081482F8A81282F30E0AD
:1002400081E090E0022E02C0880F991F0A94E2F725
:10025000809584238C9314C0A1E3B0E0E1E3F0E047
:100260008081482F8A81282F30E081E090E0022EA3
:1002700002C0880F991F0A94E2F7809584238C931B
:1002800027960FB6F894DEBF0FBECDBFCF91DF919A
:100290000895DF93CF93CDB7DEB727970FB6F894C5
:1002A000DEBF0FBECDBF89836A834B8389818430D3
:1002B00008F0EEC08A81883008F0EAC08B81813076
:1002C00009F06FC08981282F30E03F832E838E8113
:1002D0009F818130910549F12E813F812230310586
:1002E0002CF48E819F81009761F0D2C02E813F81D6
:1002F0002230310571F18E819F8183309105E9F1C2
:10030000C7C0ABE3B0E0EBE3F0E08081482F8A8127
:10031000282F30E081E090E0022E02C0880F991F64
:100320000A94E2F7842B8C93B3C0A8E3B0E0E8E32F
:10033000F0E08081482F8A81282F30E081E090E032
:10034000022E02C0880F991F0A94E2F7842B8C9327
:100350009FC0A5E3B0E0E5E3F0E08081482F8A810B
:10036000282F30E081E090E0022E02C0880F991F14
:100370000A94E2F7842B8C938BC0A2E3B0E0E2E313
:10038000F0E08081482F8A81282F30E081E090E0E2
:10039000022E02C0880F991F0A94E2F7842B8C93D7
:1003A00077C08B81882309F073C08981282F30E0C2
:1003B0003D832C838C819D818130910559F12C8165
:1003C0003D81223031052CF48C819D81009769F0AC
:1003D0005FC02C813D812230310589F18C819D8166
:1003E0008330910509F440C053C0ABE3B0E0EBE3C8
:1003F000F0E08081482F8A81282F30E081E090E072
:10040000022E02C0880F991F0A94E2F78095842378
:100410008C933EC0A8E3B0E0E8E3F0E08081482F91
:100420008A81282F30E081E090E0022E02C0880F00
:10043000991F0A94E2F7809584238C9329C0A5E341
:10044000B0E0E5E3F0E08081482F8A81282F30E09A
:1004500081E090E0022E02C0880F991F0A94E2F713
:10046000809584238C9314C0A2E3B0E0E2E3F0E033
:100470008081482F8A81282F30E081E090E0022E91
:1004800002C0880F991F0A94E2F7809584238C9309
:1004900027960FB6F894DEBF0FBECDBFCF91DF9188
:1004A0000895DF93CF9300D000D00F92CDB7DEB781
:1004B0008A836B838A81843008F06CC08B8188309A
:1004C00008F068C08A81282F30E03D832C834C815E
:1004D0005D814130510541F18C819D8182309105D2
:1004E00034F42C813D812115310561F055C04C81DA
:1004F0005D814230510551F18C819D8183309105A0
:10050000B9F14AC0E9E3F0E08081282F30E08B8127
:10051000882F90E0A90102C0559547958A95E2F78A
:10052000CA018170898338C0E6E3F0E08081282F1A
:1005300030E08B81882F90E0A90102C05595479546
:100540008A95E2F7CA018170898326C0E3E3F0E06F
:100550008081282F30E08B81882F90E0A90102C094
:10056000559547958A95E2F7CA018170898314C031
:10057000E0E3F0E08081282F30E08B81882F90E04D
:10058000A90102C0559547958A95E2F7CA01817085
:10059000898302C08FEF898389810F900F900F901C
:1005A0000F900F90CF91DF910895DF93CF9300D0FC
:1005B00000D0CDB7DEB789836A838981282F30E0E8
:1005C0003C832B838B819C8181309105D1F02B81E1
:1005D0003C81223031052CF48B819C81009761F0A5
:1005E0001EC02B813C812230310581F08B819C81A2
:1005F0008330910581F013C0EAE3F0E08A818083C3
:100600000EC0E7E3F0E08A81808309C0E4E3F0E014
:100610008A81808304C0E1E3F0E08A8180830F90C7
:100620000F900F900F90CF91DF910895DF93CF93AC
:1006300000D000D0CDB7DEB789836A838981282FA7
:1006400030E03C832B838B819C8181309105D1F0FC
:100650002B813C81223031052CF48B819C810097C9
:1006600061F01EC02B813C812230310581F08B81ED
:100670009C818330910581F013C0EBE3F0E08A8127
:1006800080830EC0E8E3F0E08A81808309C0E5E35F
:10069000F0E08A81808304C0E2E3F0E08A81808315
:1006A0000F900F900F900F90CF91DF910895DF93EF
:1006B000CF93CDB7DEB780E060E041E00E9441001B
:1006C00080E061E041E00E94410080E062E041E0C2
:1006D0000E94410080E063E041E00E94410080E030
:1006E00064E040E00E94410080E065E040E00E945C
:1006F000410080E066E040E00E94410080E067E069
:1007000040E00E94410080E060E041E00E94490139
:1007100080E061E041E00E94490180E062E041E068
:100720000E94490180E063E041E00E94490180E0CD
:1007300064E041E00E94490180E065E041E00E9400
:10074000490180E066E041E00E94490180E067E005
:1007500041E00E944901CF91DF910895DF93CF934B
:10076000CDB7DEB7A2970FB6F894DEBF0FBECDBFF0
:100770008FEF8C83CE0105969F8F8E8FE0E6F0E0A1
:10078000F9A3E8A3F0E1FAA3E8A1F9A1008088A108
:1007900099A1019699A388A3EE8DFF8D00828E8D7D
:1007A0009F8D01969F8F8E8F9AA191509AA3EAA157
:1007B000EE2351F71D8A81E08E8B82E08F8B83E0E0
:1007C000888F84E0898F85E08A8F86E08B8F87E031
:1007D0008C8F1B8268C08B81282F30E0CE0145961C
:1007E000FC01E20FF31F908180E0692F40E00E943E
:1007F00049011A8243C08A81282F30E0CE014996F0
:10080000FC01E20FF31F8081282F30E080E090E0B0
:10081000B9010E94510289838981882361F511C041
:100820008A81282F30E0CE014996FC01E20FF31FA8
:100830008081282F30E080E090E0B9010E945102D1
:1008400089838981882361F38A81282F30E08B8115
:10085000482F50E0220F331F220F331FCE01019685
:10086000820F931F840F951FFC01349680818C8327
:10087000FC81FD8F1EC08A818F5F8A838A818430CC
:1008800008F4B9CF8B81282F30E0CE014596FC01CA
:10089000E20FF31F908180E0692F41E00E9449013F
:1008A0008B818F5F8B838B81843008F494CF8C8114
:1008B0008D8F8D8DA2960FB6F894DEBF0FBECDBF83
:1008C000CF91DF910895DF93CF930F92CDB7DEB72D
:1008D000198289818068898389818F7B8983898155
:1008E0008F7D898389818F7E89838981877F8983B1
:1008F000898184608983898182608983AAE2B0E0EA
:10090000EAE2F0E080818B7F8C93E0E4F0E0898183
:100910008083E9E2F0E083E38083AAE2B0E0EAE2E8
:10092000F0E0808180618C93AAE2B0E0EAE2F0E03E
:10093000808188608C930F90CF91DF910895DF9331
:10094000CF930F92CDB7DEB78983EBE2F0E08081E1
:10095000829586958770882F90E0817090700097BF
:10096000A1F3ECE2F0E0898180830F90CF91DF91D9
:100970000895DF93CF93CDB7DEB7EBE2F0E080814F
:100980008823DCF7ECE2F0E08081CF91DF910895DD
:10099000DF93CF930F92CDB7DEB70E9457030E942B
:1009A00063040E94AE03898389818F3FD1F38981DB
:0A09B0000E949F04F6CFF894FFCFD9
:1009BA003738392F3435362A3132332D5F303D2BD3
:00000001FF
